{
  "_format": "hh-sol-artifact-1",
  "contractName": "Exchange",
  "sourceName": "contracts/Exchange.sol",
  "abi": [
    {
      "inputs": [
        {
          "internalType": "address",
          "name": "_tokenAddress",
          "type": "address"
        }
      ],
      "stateMutability": "nonpayable",
      "type": "constructor"
    },
    {
      "anonymous": false,
      "inputs": [
        {
          "indexed": true,
          "internalType": "address",
          "name": "previousOwner",
          "type": "address"
        },
        {
          "indexed": true,
          "internalType": "address",
          "name": "newOwner",
          "type": "address"
        }
      ],
      "name": "OwnershipTransferred",
      "type": "event"
    },
    {
      "inputs": [
        {
          "internalType": "uint256",
          "name": "_tokenAmount",
          "type": "uint256"
        }
      ],
      "name": "addLiquidity",
      "outputs": [],
      "stateMutability": "payable",
      "type": "function"
    },
    {
      "inputs": [
        {
          "internalType": "uint256",
          "name": "_tokenAmount",
          "type": "uint256"
        }
      ],
      "name": "allow",
      "outputs": [],
      "stateMutability": "nonpayable",
      "type": "function"
    },
    {
      "inputs": [
        {
          "internalType": "uint256",
          "name": "_tokenAmount",
          "type": "uint256"
        }
      ],
      "name": "getEthAmount",
      "outputs": [
        {
          "internalType": "uint256",
          "name": "",
          "type": "uint256"
        }
      ],
      "stateMutability": "view",
      "type": "function"
    },
    {
      "inputs": [
        {
          "internalType": "uint256",
          "name": "_ethAmount",
          "type": "uint256"
        }
      ],
      "name": "getTokenAmount",
      "outputs": [
        {
          "internalType": "uint256",
          "name": "",
          "type": "uint256"
        }
      ],
      "stateMutability": "view",
      "type": "function"
    },
    {
      "inputs": [
        {
          "internalType": "address",
          "name": "_tokenA",
          "type": "address"
        },
        {
          "internalType": "address",
          "name": "_tokenB",
          "type": "address"
        },
        {
          "internalType": "uint256",
          "name": "_tokenAInput",
          "type": "uint256"
        }
      ],
      "name": "getTokenEquivalence",
      "outputs": [
        {
          "internalType": "uint256",
          "name": "",
          "type": "uint256"
        }
      ],
      "stateMutability": "view",
      "type": "function"
    },
    {
      "inputs": [],
      "name": "owner",
      "outputs": [
        {
          "internalType": "address",
          "name": "",
          "type": "address"
        }
      ],
      "stateMutability": "view",
      "type": "function"
    },
    {
      "inputs": [],
      "name": "renounceOwnership",
      "outputs": [],
      "stateMutability": "nonpayable",
      "type": "function"
    },
    {
      "inputs": [],
      "name": "swapEthForToken",
      "outputs": [],
      "stateMutability": "payable",
      "type": "function"
    },
    {
      "inputs": [
        {
          "internalType": "uint256",
          "name": "_tokenAmount",
          "type": "uint256"
        }
      ],
      "name": "swapTokenForEth",
      "outputs": [],
      "stateMutability": "nonpayable",
      "type": "function"
    },
    {
      "inputs": [
        {
          "internalType": "address",
          "name": "newOwner",
          "type": "address"
        }
      ],
      "name": "transferOwnership",
      "outputs": [],
      "stateMutability": "nonpayable",
      "type": "function"
    }
  ],
  "bytecode": "0x60806040523480156200001157600080fd5b50604051620012d5380380620012d58339818101604052810190620000379190620001f5565b620000576200004b6200011260201b60201c565b6200011a60201b60201c565b600073ffffffffffffffffffffffffffffffffffffffff168173ffffffffffffffffffffffffffffffffffffffff161415620000ca576040517f08c379a0000000000000000000000000000000000000000000000000000000008152600401620000c19062000248565b60405180910390fd5b80600160006101000a81548173ffffffffffffffffffffffffffffffffffffffff021916908373ffffffffffffffffffffffffffffffffffffffff16021790555050620002f2565b600033905090565b60008060009054906101000a900473ffffffffffffffffffffffffffffffffffffffff169050816000806101000a81548173ffffffffffffffffffffffffffffffffffffffff021916908373ffffffffffffffffffffffffffffffffffffffff1602179055508173ffffffffffffffffffffffffffffffffffffffff168173ffffffffffffffffffffffffffffffffffffffff167f8be0079c531659141344cd1fd0a4f28419497f9722a3daafe3b4186f6b6457e060405160405180910390a35050565b600081519050620001ef81620002d8565b92915050565b6000602082840312156200020857600080fd5b60006200021884828501620001de565b91505092915050565b6000620002306015836200026a565b91506200023d82620002af565b602082019050919050565b60006020820190508181036000830152620002638162000221565b9050919050565b600082825260208201905092915050565b600062000288826200028f565b9050919050565b600073ffffffffffffffffffffffffffffffffffffffff82169050919050565b7f496e76616c696420746f6b656e20616464726573730000000000000000000000600082015250565b620002e3816200027b565b8114620002ef57600080fd5b50565b610fd380620003026000396000f3fe6080604052600436106100915760003560e01c80638da5cb5b116100595780638da5cb5b146101395780638fc7a25d14610164578063ae86041d146101a1578063c2507ac1146101ca578063f2fde38b1461020757610091565b806321b810631461009657806330506732146100bf57806351c6590a146100c95780636b076fa1146100e5578063715018a614610122575b600080fd5b3480156100a257600080fd5b506100bd60048036038101906100b89190610a78565b610230565b005b6100c76102e3565b005b6100e360048036038101906100de9190610a78565b6103a5565b005b3480156100f157600080fd5b5061010c60048036038101906101079190610a00565b610460565b6040516101199190610cb2565b60405180910390f35b34801561012e57600080fd5b5061013761049d565b005b34801561014557600080fd5b5061014e610525565b60405161015b9190610b97565b60405180910390f35b34801561017057600080fd5b5061018b60048036038101906101869190610a78565b61054e565b6040516101989190610cb2565b60405180910390f35b3480156101ad57600080fd5b506101c860048036038101906101c39190610a78565b6105d4565b005b3480156101d657600080fd5b506101f160048036038101906101ec9190610a78565b61062c565b6040516101fe9190610cb2565b60405180910390f35b34801561021357600080fd5b5061022e600480360381019061022991906109d7565b6106b2565b005b600160009054906101000a900473ffffffffffffffffffffffffffffffffffffffff1673ffffffffffffffffffffffffffffffffffffffff1663095ea7b330836040518363ffffffff1660e01b815260040161028d929190610be9565b602060405180830381600087803b1580156102a757600080fd5b505af11580156102bb573d6000803e3d6000fd5b505050506040513d601f19601f820116820180604052508101906102df9190610a4f565b5050565b60006102ee3461062c565b9050600160009054906101000a900473ffffffffffffffffffffffffffffffffffffffff1673ffffffffffffffffffffffffffffffffffffffff166323b872dd3033846040518463ffffffff1660e01b815260040161034f93929190610bb2565b602060405180830381600087803b15801561036957600080fd5b505af115801561037d573d6000803e3d6000fd5b505050506040513d601f19601f820116820180604052508101906103a19190610a4f565b5050565b6000600160009054906101000a900473ffffffffffffffffffffffffffffffffffffffff1690508073ffffffffffffffffffffffffffffffffffffffff166323b872dd3330856040518463ffffffff1660e01b815260040161040993929190610bb2565b602060405180830381600087803b15801561042357600080fd5b505af1158015610437573d6000803e3d6000fd5b505050506040513d601f19601f8201168201806040525081019061045b9190610a4f565b505050565b60008161046c856107aa565b6104769190610cde565b82610480856107aa565b61048a9190610d65565b6104949190610d34565b90509392505050565b6104a561083c565b73ffffffffffffffffffffffffffffffffffffffff166104c3610525565b73ffffffffffffffffffffffffffffffffffffffff1614610519576040517f08c379a000000000000000000000000000000000000000000000000000000000815260040161051090610c32565b60405180910390fd5b6105236000610844565b565b60008060009054906101000a900473ffffffffffffffffffffffffffffffffffffffff16905090565b6000808211610592576040517f08c379a000000000000000000000000000000000000000000000000000000000815260040161058990610c52565b60405180910390fd5b60006105bf600160009054906101000a900473ffffffffffffffffffffffffffffffffffffffff166107aa565b90506105cc838247610908565b915050919050565b60006105df8261054e565b90503373ffffffffffffffffffffffffffffffffffffffff166108fc829081150290604051600060405180830381858888f19350505050158015610627573d6000803e3d6000fd5b505050565b6000808211610670576040517f08c379a000000000000000000000000000000000000000000000000000000000815260040161066790610c72565b60405180910390fd5b600061069d600160009054906101000a900473ffffffffffffffffffffffffffffffffffffffff166107aa565b90506106aa834783610908565b915050919050565b6106ba61083c565b73ffffffffffffffffffffffffffffffffffffffff166106d8610525565b73ffffffffffffffffffffffffffffffffffffffff161461072e576040517f08c379a000000000000000000000000000000000000000000000000000000000815260040161072590610c32565b60405180910390fd5b600073ffffffffffffffffffffffffffffffffffffffff168173ffffffffffffffffffffffffffffffffffffffff16141561079e576040517f08c379a000000000000000000000000000000000000000000000000000000000815260040161079590610c12565b60405180910390fd5b6107a781610844565b50565b60008173ffffffffffffffffffffffffffffffffffffffff166370a08231306040518263ffffffff1660e01b81526004016107e59190610b97565b60206040518083038186803b1580156107fd57600080fd5b505afa158015610811573d6000803e3d6000fd5b505050506040513d601f19601f820116820180604052508101906108359190610aa1565b9050919050565b600033905090565b60008060009054906101000a900473ffffffffffffffffffffffffffffffffffffffff169050816000806101000a81548173ffffffffffffffffffffffffffffffffffffffff021916908373ffffffffffffffffffffffffffffffffffffffff1602179055508173ffffffffffffffffffffffffffffffffffffffff168173ffffffffffffffffffffffffffffffffffffffff167f8be0079c531659141344cd1fd0a4f28419497f9722a3daafe3b4186f6b6457e060405160405180910390a35050565b600080831180156109195750600082115b610958576040517f08c379a000000000000000000000000000000000000000000000000000000000815260040161094f90610c92565b60405180910390fd5b83836109649190610cde565b82856109709190610d65565b61097a9190610d34565b90509392505050565b60008135905061099281610f58565b92915050565b6000815190506109a781610f6f565b92915050565b6000813590506109bc81610f86565b92915050565b6000815190506109d181610f86565b92915050565b6000602082840312156109e957600080fd5b60006109f784828501610983565b91505092915050565b600080600060608486031215610a1557600080fd5b6000610a2386828701610983565b9350506020610a3486828701610983565b9250506040610a45868287016109ad565b9150509250925092565b600060208284031215610a6157600080fd5b6000610a6f84828501610998565b91505092915050565b600060208284031215610a8a57600080fd5b6000610a98848285016109ad565b91505092915050565b600060208284031215610ab357600080fd5b6000610ac1848285016109c2565b91505092915050565b610ad381610dbf565b82525050565b6000610ae6602683610ccd565b9150610af182610e65565b604082019050919050565b6000610b09602083610ccd565b9150610b1482610eb4565b602082019050919050565b6000610b2c601983610ccd565b9150610b3782610edd565b602082019050919050565b6000610b4f601583610ccd565b9150610b5a82610f06565b602082019050919050565b6000610b72601083610ccd565b9150610b7d82610f2f565b602082019050919050565b610b9181610dfd565b82525050565b6000602082019050610bac6000830184610aca565b92915050565b6000606082019050610bc76000830186610aca565b610bd46020830185610aca565b610be16040830184610b88565b949350505050565b6000604082019050610bfe6000830185610aca565b610c0b6020830184610b88565b9392505050565b60006020820190508181036000830152610c2b81610ad9565b9050919050565b60006020820190508181036000830152610c4b81610afc565b9050919050565b60006020820190508181036000830152610c6b81610b1f565b9050919050565b60006020820190508181036000830152610c8b81610b42565b9050919050565b60006020820190508181036000830152610cab81610b65565b9050919050565b6000602082019050610cc76000830184610b88565b92915050565b600082825260208201905092915050565b6000610ce982610dfd565b9150610cf483610dfd565b9250827fffffffffffffffffffffffffffffffffffffffffffffffffffffffffffffffff03821115610d2957610d28610e07565b5b828201905092915050565b6000610d3f82610dfd565b9150610d4a83610dfd565b925082610d5a57610d59610e36565b5b828204905092915050565b6000610d7082610dfd565b9150610d7b83610dfd565b9250817fffffffffffffffffffffffffffffffffffffffffffffffffffffffffffffffff0483118215151615610db457610db3610e07565b5b828202905092915050565b6000610dca82610ddd565b9050919050565b60008115159050919050565b600073ffffffffffffffffffffffffffffffffffffffff82169050919050565b6000819050919050565b7f4e487b7100000000000000000000000000000000000000000000000000000000600052601160045260246000fd5b7f4e487b7100000000000000000000000000000000000000000000000000000000600052601260045260246000fd5b7f4f776e61626c653a206e6577206f776e657220697320746865207a65726f206160008201527f6464726573730000000000000000000000000000000000000000000000000000602082015250565b7f4f776e61626c653a2063616c6c6572206973206e6f7420746865206f776e6572600082015250565b7f546f6b656e20616d6f756e7420697320746f6f20736d616c6c00000000000000600082015250565b7f45544820616d6f756e742063616e277420626520300000000000000000000000600082015250565b7f696e76616c696420726573657276657300000000000000000000000000000000600082015250565b610f6181610dbf565b8114610f6c57600080fd5b50565b610f7881610dd1565b8114610f8357600080fd5b50565b610f8f81610dfd565b8114610f9a57600080fd5b5056fea2646970667358221220241b6afbcb8d32f4404a7ec1880da416d857058f089dbb11e8624c3c596a517064736f6c63430008040033",
  "linkReferences": {},
  "deployedLinkReferences": {}
}