{
  "_format": "hh-sol-artifact-1",
  "contractName": "Exchange",
  "sourceName": "contracts/Exchange.sol",
  "abi": [
    {
      "inputs": [
        {
          "internalType": "address",
          "name": "_tokenAddress",
          "type": "address"
        }
      ],
      "stateMutability": "nonpayable",
      "type": "constructor"
    },
    {
      "anonymous": false,
      "inputs": [
        {
          "indexed": true,
          "internalType": "address",
          "name": "previousOwner",
          "type": "address"
        },
        {
          "indexed": true,
          "internalType": "address",
          "name": "newOwner",
          "type": "address"
        }
      ],
      "name": "OwnershipTransferred",
      "type": "event"
    },
    {
      "inputs": [
        {
          "internalType": "uint256",
          "name": "_tokenAmount",
          "type": "uint256"
        }
      ],
      "name": "addLiquidity",
      "outputs": [],
      "stateMutability": "payable",
      "type": "function"
    },
    {
      "inputs": [
        {
          "internalType": "uint256",
          "name": "_tokenAmount",
          "type": "uint256"
        }
      ],
      "name": "allow",
      "outputs": [],
      "stateMutability": "nonpayable",
      "type": "function"
    },
    {
      "inputs": [
        {
          "internalType": "uint256",
          "name": "_tokenAmount",
          "type": "uint256"
        }
      ],
      "name": "getEthAmount",
      "outputs": [
        {
          "internalType": "uint256",
          "name": "",
          "type": "uint256"
        }
      ],
      "stateMutability": "view",
      "type": "function"
    },
    {
      "inputs": [
        {
          "internalType": "uint256",
          "name": "_ethAmount",
          "type": "uint256"
        }
      ],
      "name": "getTokenAmount",
      "outputs": [
        {
          "internalType": "uint256",
          "name": "",
          "type": "uint256"
        }
      ],
      "stateMutability": "view",
      "type": "function"
    },
    {
      "inputs": [
        {
          "internalType": "address",
          "name": "_tokenA",
          "type": "address"
        },
        {
          "internalType": "address",
          "name": "_tokenB",
          "type": "address"
        },
        {
          "internalType": "uint256",
          "name": "_tokenAInput",
          "type": "uint256"
        }
      ],
      "name": "getTokenEquivalence",
      "outputs": [
        {
          "internalType": "uint256",
          "name": "",
          "type": "uint256"
        }
      ],
      "stateMutability": "view",
      "type": "function"
    },
    {
      "inputs": [],
      "name": "owner",
      "outputs": [
        {
          "internalType": "address",
          "name": "",
          "type": "address"
        }
      ],
      "stateMutability": "view",
      "type": "function"
    },
    {
      "inputs": [],
      "name": "renounceOwnership",
      "outputs": [],
      "stateMutability": "nonpayable",
      "type": "function"
    },
    {
      "inputs": [],
      "name": "swapEthForToken",
      "outputs": [],
      "stateMutability": "payable",
      "type": "function"
    },
    {
      "inputs": [
        {
          "internalType": "uint256",
          "name": "_tokenAmount",
          "type": "uint256"
        }
      ],
      "name": "swapTokenForEth",
      "outputs": [],
      "stateMutability": "nonpayable",
      "type": "function"
    },
    {
      "inputs": [
        {
          "internalType": "address",
          "name": "newOwner",
          "type": "address"
        }
      ],
      "name": "transferOwnership",
      "outputs": [],
      "stateMutability": "nonpayable",
      "type": "function"
    }
  ],
  "bytecode": "0x60806040523480156200001157600080fd5b506040516200147e3803806200147e8339818101604052810190620000379190620001f5565b620000576200004b6200011260201b60201c565b6200011a60201b60201c565b600073ffffffffffffffffffffffffffffffffffffffff168173ffffffffffffffffffffffffffffffffffffffff161415620000ca576040517f08c379a0000000000000000000000000000000000000000000000000000000008152600401620000c19062000248565b60405180910390fd5b80600160006101000a81548173ffffffffffffffffffffffffffffffffffffffff021916908373ffffffffffffffffffffffffffffffffffffffff16021790555050620002f2565b600033905090565b60008060009054906101000a900473ffffffffffffffffffffffffffffffffffffffff169050816000806101000a81548173ffffffffffffffffffffffffffffffffffffffff021916908373ffffffffffffffffffffffffffffffffffffffff1602179055508173ffffffffffffffffffffffffffffffffffffffff168173ffffffffffffffffffffffffffffffffffffffff167f8be0079c531659141344cd1fd0a4f28419497f9722a3daafe3b4186f6b6457e060405160405180910390a35050565b600081519050620001ef81620002d8565b92915050565b6000602082840312156200020857600080fd5b60006200021884828501620001de565b91505092915050565b6000620002306015836200026a565b91506200023d82620002af565b602082019050919050565b60006020820190508181036000830152620002638162000221565b9050919050565b600082825260208201905092915050565b600062000288826200028f565b9050919050565b600073ffffffffffffffffffffffffffffffffffffffff82169050919050565b7f496e76616c696420746f6b656e20616464726573730000000000000000000000600082015250565b620002e3816200027b565b8114620002ef57600080fd5b50565b61117c80620003026000396000f3fe6080604052600436106100915760003560e01c80638da5cb5b116100595780638da5cb5b146101395780638fc7a25d14610164578063ae86041d146101a1578063c2507ac1146101ca578063f2fde38b1461020757610091565b806321b810631461009657806330506732146100bf57806351c6590a146100c95780636b076fa1146100e5578063715018a614610122575b600080fd5b3480156100a257600080fd5b506100bd60048036038101906100b89190610bb5565b610230565b005b6100c76102e3565b005b6100e360048036038101906100de9190610bb5565b6103ec565b005b3480156100f157600080fd5b5061010c60048036038101906101079190610b3d565b6104a7565b6040516101199190610e32565b60405180910390f35b34801561012e57600080fd5b506101376104e4565b005b34801561014557600080fd5b5061014e61056c565b60405161015b9190610cf7565b60405180910390f35b34801561017057600080fd5b5061018b60048036038101906101869190610bb5565b610595565b6040516101989190610e32565b60405180910390f35b3480156101ad57600080fd5b506101c860048036038101906101c39190610bb5565b61061b565b005b3480156101d657600080fd5b506101f160048036038101906101ec9190610bb5565b610769565b6040516101fe9190610e32565b60405180910390f35b34801561021357600080fd5b5061022e60048036038101906102299190610b14565b6107ef565b005b600160009054906101000a900473ffffffffffffffffffffffffffffffffffffffff1673ffffffffffffffffffffffffffffffffffffffff1663095ea7b330836040518363ffffffff1660e01b815260040161028d929190610d49565b602060405180830381600087803b1580156102a757600080fd5b505af11580156102bb573d6000803e3d6000fd5b505050506040513d601f19601f820116820180604052508101906102df9190610b8c565b5050565b60006102ee34610769565b90503073ffffffffffffffffffffffffffffffffffffffff166108fc349081150290604051600060405180830381858888f19350505050158015610336573d6000803e3d6000fd5b50600160009054906101000a900473ffffffffffffffffffffffffffffffffffffffff1673ffffffffffffffffffffffffffffffffffffffff166323b872dd3033846040518463ffffffff1660e01b815260040161039693929190610d12565b602060405180830381600087803b1580156103b057600080fd5b505af11580156103c4573d6000803e3d6000fd5b505050506040513d601f19601f820116820180604052508101906103e89190610b8c565b5050565b6000600160009054906101000a900473ffffffffffffffffffffffffffffffffffffffff1690508073ffffffffffffffffffffffffffffffffffffffff166323b872dd3330856040518463ffffffff1660e01b815260040161045093929190610d12565b602060405180830381600087803b15801561046a57600080fd5b505af115801561047e573d6000803e3d6000fd5b505050506040513d601f19601f820116820180604052508101906104a29190610b8c565b505050565b6000816104b3856108e7565b6104bd9190610e5e565b826104c7856108e7565b6104d19190610ee5565b6104db9190610eb4565b90509392505050565b6104ec610979565b73ffffffffffffffffffffffffffffffffffffffff1661050a61056c565b73ffffffffffffffffffffffffffffffffffffffff1614610560576040517f08c379a000000000000000000000000000000000000000000000000000000000815260040161055790610db2565b60405180910390fd5b61056a6000610981565b565b60008060009054906101000a900473ffffffffffffffffffffffffffffffffffffffff16905090565b60008082116105d9576040517f08c379a00000000000000000000000000000000000000000000000000000000081526004016105d090610dd2565b60405180910390fd5b6000610606600160009054906101000a900473ffffffffffffffffffffffffffffffffffffffff166108e7565b9050610613838247610a45565b915050919050565b600181101561065f576040517f08c379a000000000000000000000000000000000000000000000000000000000815260040161065690610d92565b60405180910390fd5b600061066a82610595565b9050600160009054906101000a900473ffffffffffffffffffffffffffffffffffffffff1673ffffffffffffffffffffffffffffffffffffffff166323b872dd3330856040518463ffffffff1660e01b81526004016106cb93929190610d12565b602060405180830381600087803b1580156106e557600080fd5b505af11580156106f9573d6000803e3d6000fd5b505050506040513d601f19601f8201168201806040525081019061071d9190610b8c565b503373ffffffffffffffffffffffffffffffffffffffff166108fc829081150290604051600060405180830381858888f19350505050158015610764573d6000803e3d6000fd5b505050565b60008082116107ad576040517f08c379a00000000000000000000000000000000000000000000000000000000081526004016107a490610df2565b60405180910390fd5b60006107da600160009054906101000a900473ffffffffffffffffffffffffffffffffffffffff166108e7565b90506107e7834783610a45565b915050919050565b6107f7610979565b73ffffffffffffffffffffffffffffffffffffffff1661081561056c565b73ffffffffffffffffffffffffffffffffffffffff161461086b576040517f08c379a000000000000000000000000000000000000000000000000000000000815260040161086290610db2565b60405180910390fd5b600073ffffffffffffffffffffffffffffffffffffffff168173ffffffffffffffffffffffffffffffffffffffff1614156108db576040517f08c379a00000000000000000000000000000000000000000000000000000000081526004016108d290610d72565b60405180910390fd5b6108e481610981565b50565b60008173ffffffffffffffffffffffffffffffffffffffff166370a08231306040518263ffffffff1660e01b81526004016109229190610cf7565b60206040518083038186803b15801561093a57600080fd5b505afa15801561094e573d6000803e3d6000fd5b505050506040513d601f19601f820116820180604052508101906109729190610bde565b9050919050565b600033905090565b60008060009054906101000a900473ffffffffffffffffffffffffffffffffffffffff169050816000806101000a81548173ffffffffffffffffffffffffffffffffffffffff021916908373ffffffffffffffffffffffffffffffffffffffff1602179055508173ffffffffffffffffffffffffffffffffffffffff168173ffffffffffffffffffffffffffffffffffffffff167f8be0079c531659141344cd1fd0a4f28419497f9722a3daafe3b4186f6b6457e060405160405180910390a35050565b60008083118015610a565750600082115b610a95576040517f08c379a0000000000000000000000000000000000000000000000000000000008152600401610a8c90610e12565b60405180910390fd5b8383610aa19190610e5e565b8285610aad9190610ee5565b610ab79190610eb4565b90509392505050565b600081359050610acf81611101565b92915050565b600081519050610ae481611118565b92915050565b600081359050610af98161112f565b92915050565b600081519050610b0e8161112f565b92915050565b600060208284031215610b2657600080fd5b6000610b3484828501610ac0565b91505092915050565b600080600060608486031215610b5257600080fd5b6000610b6086828701610ac0565b9350506020610b7186828701610ac0565b9250506040610b8286828701610aea565b9150509250925092565b600060208284031215610b9e57600080fd5b6000610bac84828501610ad5565b91505092915050565b600060208284031215610bc757600080fd5b6000610bd584828501610aea565b91505092915050565b600060208284031215610bf057600080fd5b6000610bfe84828501610aff565b91505092915050565b610c1081610f3f565b82525050565b6000610c23602683610e4d565b9150610c2e82610fe5565b604082019050919050565b6000610c46601e83610e4d565b9150610c5182611034565b602082019050919050565b6000610c69602083610e4d565b9150610c748261105d565b602082019050919050565b6000610c8c601983610e4d565b9150610c9782611086565b602082019050919050565b6000610caf601583610e4d565b9150610cba826110af565b602082019050919050565b6000610cd2601083610e4d565b9150610cdd826110d8565b602082019050919050565b610cf181610f7d565b82525050565b6000602082019050610d0c6000830184610c07565b92915050565b6000606082019050610d276000830186610c07565b610d346020830185610c07565b610d416040830184610ce8565b949350505050565b6000604082019050610d5e6000830185610c07565b610d6b6020830184610ce8565b9392505050565b60006020820190508181036000830152610d8b81610c16565b9050919050565b60006020820190508181036000830152610dab81610c39565b9050919050565b60006020820190508181036000830152610dcb81610c5c565b9050919050565b60006020820190508181036000830152610deb81610c7f565b9050919050565b60006020820190508181036000830152610e0b81610ca2565b9050919050565b60006020820190508181036000830152610e2b81610cc5565b9050919050565b6000602082019050610e476000830184610ce8565b92915050565b600082825260208201905092915050565b6000610e6982610f7d565b9150610e7483610f7d565b9250827fffffffffffffffffffffffffffffffffffffffffffffffffffffffffffffffff03821115610ea957610ea8610f87565b5b828201905092915050565b6000610ebf82610f7d565b9150610eca83610f7d565b925082610eda57610ed9610fb6565b5b828204905092915050565b6000610ef082610f7d565b9150610efb83610f7d565b9250817fffffffffffffffffffffffffffffffffffffffffffffffffffffffffffffffff0483118215151615610f3457610f33610f87565b5b828202905092915050565b6000610f4a82610f5d565b9050919050565b60008115159050919050565b600073ffffffffffffffffffffffffffffffffffffffff82169050919050565b6000819050919050565b7f4e487b7100000000000000000000000000000000000000000000000000000000600052601160045260246000fd5b7f4e487b7100000000000000000000000000000000000000000000000000000000600052601260045260246000fd5b7f4f776e61626c653a206e6577206f776e657220697320746865207a65726f206160008201527f6464726573730000000000000000000000000000000000000000000000000000602082015250565b7f43616e27742073776170206c657373207468616e206f6e6520746f6b656e0000600082015250565b7f4f776e61626c653a2063616c6c6572206973206e6f7420746865206f776e6572600082015250565b7f546f6b656e20616d6f756e7420697320746f6f20736d616c6c00000000000000600082015250565b7f45544820616d6f756e742063616e277420626520300000000000000000000000600082015250565b7f696e76616c696420726573657276657300000000000000000000000000000000600082015250565b61110a81610f3f565b811461111557600080fd5b50565b61112181610f51565b811461112c57600080fd5b50565b61113881610f7d565b811461114357600080fd5b5056fea26469706673582212209a08d044cf3de46bdb40b0482363bb453e1ff6411df530410f2faf7d42a7ef2064736f6c63430008040033",
  "linkReferences": {},
  "deployedLinkReferences": {}
}